{
  "contractName": "WeiboAccount",
  "abi": [
    {
      "payable": true,
      "stateMutability": "payable",
      "type": "fallback"
    },
    {
      "anonymous": false,
      "inputs": [
        {
          "indexed": true,
          "name": "from",
          "type": "address"
        },
        {
          "indexed": false,
          "name": "_amount",
          "type": "uint256"
        }
      ],
      "name": "LogDonate",
      "type": "event"
    },
    {
      "constant": false,
      "inputs": [],
      "name": "WeiboAccounts",
      "outputs": [],
      "payable": false,
      "stateMutability": "nonpayable",
      "type": "function"
    },
    {
      "constant": false,
      "inputs": [
        {
          "name": "weiboString",
          "type": "string"
        }
      ],
      "name": "weibo",
      "outputs": [],
      "payable": false,
      "stateMutability": "nonpayable",
      "type": "function"
    },
    {
      "constant": true,
      "inputs": [
        {
          "name": "weiboId",
          "type": "uint256"
        }
      ],
      "name": "getWeibo",
      "outputs": [
        {
          "name": "weiboString",
          "type": "string"
        },
        {
          "name": "timestamp",
          "type": "uint256"
        }
      ],
      "payable": false,
      "stateMutability": "view",
      "type": "function"
    },
    {
      "constant": true,
      "inputs": [],
      "name": "getLatestWeibo",
      "outputs": [
        {
          "name": "weiboString",
          "type": "string"
        },
        {
          "name": "timestamp",
          "type": "uint256"
        },
        {
          "name": "numberOfWeibos",
          "type": "uint256"
        }
      ],
      "payable": false,
      "stateMutability": "view",
      "type": "function"
    },
    {
      "constant": true,
      "inputs": [],
      "name": "getOwnerAddress",
      "outputs": [
        {
          "name": "adminAddress",
          "type": "address"
        }
      ],
      "payable": false,
      "stateMutability": "view",
      "type": "function"
    },
    {
      "constant": true,
      "inputs": [],
      "name": "getNumberOfWeibos",
      "outputs": [
        {
          "name": "numberOfWeibos",
          "type": "uint256"
        }
      ],
      "payable": false,
      "stateMutability": "view",
      "type": "function"
    },
    {
      "constant": false,
      "inputs": [
        {
          "name": "receiver",
          "type": "address"
        }
      ],
      "name": "adminRetrieveDonations",
      "outputs": [],
      "payable": false,
      "stateMutability": "nonpayable",
      "type": "function"
    },
    {
      "constant": false,
      "inputs": [],
      "name": "adminDeleteAccount",
      "outputs": [],
      "payable": false,
      "stateMutability": "nonpayable",
      "type": "function"
    }
  ],
  "bytecode": "0x608060405234801561001057600080fd5b50610899806100206000396000f30060806040526004361061008e576000357c0100000000000000000000000000000000000000000000000000000000900463ffffffff1680630c4f65bd146100de5780632f5821ca146101355780633b401fd71461019e5780633d4e598c1461024b5780633e450fff146102e95780635c3e426c14610300578063b940a37214610343578063d2279b541461035a575b3373ffffffffffffffffffffffffffffffffffffffff167fc651c526da5277c9cbde59963e1c4e6324da2fae97ff1e31a326a0475664a383346040518082815260200191505060405180910390a2005b3480156100ea57600080fd5b506100f3610385565b604051808273ffffffffffffffffffffffffffffffffffffffff1673ffffffffffffffffffffffffffffffffffffffff16815260200191505060405180910390f35b34801561014157600080fd5b5061019c600480360381019080803590602001908201803590602001908080601f01602080910402602001604051908101604052809392919081815260200183838082843782019150505050505091929192905050506103af565b005b3480156101aa57600080fd5b506101c960048036038101908080359060200190929190505050610479565b6040518080602001838152602001828103825284818151815260200191508051906020019080838360005b8381101561020f5780820151818401526020810190506101f4565b50505050905090810190601f16801561023c5780820380516001836020036101000a031916815260200191505b50935050505060405180910390f35b34801561025757600080fd5b5061026061054a565b6040518080602001848152602001838152602001828103825285818151815260200191508051906020019080838360005b838110156102ac578082015181840152602081019050610291565b50505050905090810190601f1680156102d95780820380516001836020036101000a031916815260200191505b5094505050505060405180910390f35b3480156102f557600080fd5b506102fe610629565b005b34801561030c57600080fd5b50610341600480360381019080803573ffffffffffffffffffffffffffffffffffffffff1690602001909291905050506106c0565b005b34801561034f57600080fd5b50610358610773565b005b34801561036657600080fd5b5061036f6107be565b6040518082815260200191505060405180910390f35b6000600260009054906101000a900473ffffffffffffffffffffffffffffffffffffffff16905090565b600260009054906101000a900473ffffffffffffffffffffffffffffffffffffffff1673ffffffffffffffffffffffffffffffffffffffff163373ffffffffffffffffffffffffffffffffffffffff1614151561040b57600080fd5b60a081511115151561041c57600080fd5b4260008060015481526020019081526020016000206000018190555080600080600154815260200190815260200160002060010190805190602001906104639291906107c8565b5060016000815480929190600101919050555050565b606060008060008481526020019081526020016000206001018054600181600116156101000203166002900480601f0160208091040260200160405190810160405280929190818152602001828054600181600116156101000203166002900480156105265780601f106104fb57610100808354040283529160200191610526565b820191906000526020600020905b81548152906001019060200180831161050957829003601f168201915b50505050509150600080848152602001908152602001600020600001549050915091565b6060600080600080600180540381526020019081526020016000206001018054600181600116156101000203166002900480601f0160208091040260200160405190810160405280929190818152602001828054600181600116156101000203166002900480156105fc5780601f106105d1576101008083540402835291602001916105fc565b820191906000526020600020905b8154815290600101906020018083116105df57829003601f168201915b50505050509250600080600180540381526020019081526020016000206000015491506001549050909192565b600260009054906101000a900473ffffffffffffffffffffffffffffffffffffffff1673ffffffffffffffffffffffffffffffffffffffff163373ffffffffffffffffffffffffffffffffffffffff1614151561068557600080fd5b600260009054906101000a900473ffffffffffffffffffffffffffffffffffffffff1673ffffffffffffffffffffffffffffffffffffffff16ff5b600260009054906101000a900473ffffffffffffffffffffffffffffffffffffffff1673ffffffffffffffffffffffffffffffffffffffff163373ffffffffffffffffffffffffffffffffffffffff1614151561071c57600080fd5b8073ffffffffffffffffffffffffffffffffffffffff166108fc3073ffffffffffffffffffffffffffffffffffffffff16319081150290604051600060405180830381858888f19350505050151561077057fe5b50565b600060018190555033600260006101000a81548173ffffffffffffffffffffffffffffffffffffffff021916908373ffffffffffffffffffffffffffffffffffffffff160217905550565b6000600154905090565b828054600181600116156101000203166002900490600052602060002090601f016020900481019282601f1061080957805160ff1916838001178555610837565b82800160010185558215610837579182015b8281111561083657825182559160200191906001019061081b565b5b5090506108449190610848565b5090565b61086a91905b8082111561086657600081600090555060010161084e565b5090565b905600a165627a7a72305820ae5040aa3b47a7305806e362693f2f9970104c328087c7be3fdf8085c86659e10029",
  "source": "pragma solidity ^0.4.17;\n\n              /*微博账户*/\ncontract WeiboAccount {\n\n      //一个微博的数据结构\n      struct Weibo {\n        uint timestamp;\n        string weiboString;\n      }\n\n      //这个微博账户的所有微博，由微博ID映射微博内容\n      mapping (uint => Weibo) _weibos;\n\n      //这个微博账户发的微博数量\n      uint _numberOfWeibos;\n\n      //这个微博账户的所有者\n      address _adminAddress;\n\n      //权限控制，被这个修饰符修饰的方法，表示该方法只能被微博所有者操作\n      modifier onlyAdmin() {\n        require(msg.sender == _adminAddress);\n        _;\n      }\n\n      //微博合约的构造方法\n      function WeiboAccounts() public {\n        _numberOfWeibos = 0;\n        _adminAddress = msg.sender;\n      }\n\n      //发送微博\n      function weibo(string weiboString) onlyAdmin public {\n        //要求微博的长度小于160\n        require(bytes(weiboString).length <= 160);\n        _weibos[_numberOfWeibos].timestamp = now;\n        _weibos[_numberOfWeibos].weiboString = weiboString;\n        _numberOfWeibos++;\n      }\n\n      //根据Id查找微博\n      function getWeibo(uint weiboId) constant public returns (string weiboString, uint timestamp) {\n        weiboString = _weibos[weiboId].weiboString;\n        timestamp = _weibos[weiboId].timestamp;\n      }\n\n      //返回最新一条微博\n      function getLatestWeibo() constant public returns (string weiboString, uint timestamp,uint numberOfWeibos) {\n        //该函数返回三个变量\n        weiboString = _weibos[_numberOfWeibos - 1].weiboString;\n        timestamp = _weibos[_numberOfWeibos - 1].timestamp;\n        numberOfWeibos = _numberOfWeibos;\n      }\n\n      //返回微博账户所有者\n      function getOwnerAddress() constant public returns (address adminAddress) {\n        return _adminAddress;\n      }\n\n      //返回微博总数\n      function getNumberOfWeibos() constant public returns (uint numberOfWeibos) {\n        return _numberOfWeibos;\n      }\n\n      //取回打赏\n      function adminRetrieveDonations(address receiver) onlyAdmin public {\n        assert(receiver.send(this.balance));\n      }\n\n      //摧毁合约\n      function adminDeleteAccount() onlyAdmin public {\n        selfdestruct(_adminAddress);\n      }\n\n      //记录每条打赏记录\n      event LogDonate(address indexed from, uint256 _amount);\n\n      //接受别人的打赏\n      function() payable public{\n        emit LogDonate(msg.sender, msg.value);\n      }\n\n\n}\n",
  "sourcePath": "/home/sxf/UGC/eth-weibo/contracts/WeiboAccount.sol",
  "compiler": {
    "name": "solc",
    "version": "0.4.24+commit.e67f0147.Emscripten.clang"
  },
  "schemaVersion": "2.0.1",
  "updatedAt": "2018-07-10T08:08:27.841Z"
}