{
  "contractName": "WeiboRegistry",
  "abi": [
    {
      "payable": true,
      "stateMutability": "payable",
      "type": "fallback"
    },
    {
      "anonymous": false,
      "inputs": [
        {
          "indexed": true,
          "name": "from",
          "type": "address"
        },
        {
          "indexed": false,
          "name": "_amount",
          "type": "uint256"
        }
      ],
      "name": "LogDonate",
      "type": "event"
    },
    {
      "constant": false,
      "inputs": [],
      "name": "WeiboRegistrys",
      "outputs": [],
      "payable": false,
      "stateMutability": "nonpayable",
      "type": "function"
    },
    {
      "constant": false,
      "inputs": [
        {
          "name": "name",
          "type": "string"
        },
        {
          "name": "accountAddress",
          "type": "address"
        }
      ],
      "name": "register",
      "outputs": [],
      "payable": false,
      "stateMutability": "nonpayable",
      "type": "function"
    },
    {
      "constant": true,
      "inputs": [],
      "name": "getNumberOfAccounts",
      "outputs": [
        {
          "name": "numberOfAccounts",
          "type": "uint256"
        }
      ],
      "payable": false,
      "stateMutability": "view",
      "type": "function"
    },
    {
      "constant": true,
      "inputs": [
        {
          "name": "name",
          "type": "string"
        }
      ],
      "name": "getAddressOfName",
      "outputs": [
        {
          "name": "addr",
          "type": "address"
        }
      ],
      "payable": false,
      "stateMutability": "view",
      "type": "function"
    },
    {
      "constant": true,
      "inputs": [
        {
          "name": "addr",
          "type": "address"
        }
      ],
      "name": "getNameOfAddress",
      "outputs": [
        {
          "name": "name",
          "type": "string"
        }
      ],
      "payable": false,
      "stateMutability": "view",
      "type": "function"
    },
    {
      "constant": true,
      "inputs": [
        {
          "name": "id",
          "type": "uint256"
        }
      ],
      "name": "getAddressOfId",
      "outputs": [
        {
          "name": "addr",
          "type": "address"
        }
      ],
      "payable": false,
      "stateMutability": "view",
      "type": "function"
    },
    {
      "constant": false,
      "inputs": [],
      "name": "adminRetrieveDonations",
      "outputs": [],
      "payable": false,
      "stateMutability": "nonpayable",
      "type": "function"
    },
    {
      "constant": false,
      "inputs": [],
      "name": "adminDeleteRegistry",
      "outputs": [],
      "payable": false,
      "stateMutability": "nonpayable",
      "type": "function"
    }
  ],
  "bytecode": "0x608060405234801561001057600080fd5b50610a8a806100206000396000f30060806040526004361061008e576000357c0100000000000000000000000000000000000000000000000000000000900463ffffffff1680631e59c529146100de578063309e36ef14610167578063345e34161461019257806338ec6ba8146101a95780633af41dc214610252578063b2dad25d14610269578063c87dc38814610325578063ec43eeb61461033c575b3373ffffffffffffffffffffffffffffffffffffffff167fc651c526da5277c9cbde59963e1c4e6324da2fae97ff1e31a326a0475664a383346040518082815260200191505060405180910390a2005b3480156100ea57600080fd5b50610165600480360381019080803590602001908201803590602001908080601f0160208091040260200160405190810160405280939291908181526020018383808284378201915050505050509192919290803573ffffffffffffffffffffffffffffffffffffffff1690602001909291905050506103a9565b005b34801561017357600080fd5b5061017c610647565b6040518082815260200191505060405180910390f35b34801561019e57600080fd5b506101a7610651565b005b3480156101b557600080fd5b50610210600480360381019080803590602001908201803590602001908080601f0160208091040260200160405190810160405280939291908181526020018383808284378201915050505050509192919290505050610725565b604051808273ffffffffffffffffffffffffffffffffffffffff1673ffffffffffffffffffffffffffffffffffffffff16815260200191505060405180910390f35b34801561025e57600080fd5b506102676107ba565b005b34801561027557600080fd5b506102aa600480360381019080803573ffffffffffffffffffffffffffffffffffffffff169060200190929190505050610851565b6040518080602001828103825283818151815260200191508051906020019080838360005b838110156102ea5780820151818401526020810190506102cf565b50505050905090810190601f1680156103175780820380516001836020036101000a031916815260200191505b509250505060405180910390f35b34801561033157600080fd5b5061033a610931565b005b34801561034857600080fd5b506103676004803603810190808035906020019092919050505061097c565b604051808273ffffffffffffffffffffffffffffffffffffffff1673ffffffffffffffffffffffffffffffffffffffff16815260200191505060405180910390f35b600073ffffffffffffffffffffffffffffffffffffffff166002836040518082805190602001908083835b6020831015156103f957805182526020820191506020810190506020830392506103d4565b6001836020036101000a038019825116818451168082178552505050505050905001915050908152602001604051809103902060009054906101000a900473ffffffffffffffffffffffffffffffffffffffff1673ffffffffffffffffffffffffffffffffffffffff1614151561046f57600080fd5b60008060008373ffffffffffffffffffffffffffffffffffffffff1673ffffffffffffffffffffffffffffffffffffffff1681526020019081526020016000208054600181600116156101000203166002900490501415156104d057600080fd5b604082511015156104e057600080fd5b816000808373ffffffffffffffffffffffffffffffffffffffff1673ffffffffffffffffffffffffffffffffffffffff16815260200190815260200160002090805190602001906105329291906109b9565b50806002836040518082805190602001908083835b60208310151561056c5780518252602082019150602081019050602083039250610547565b6001836020036101000a038019825116818451168082178552505050505050905001915050908152602001604051809103902060006101000a81548173ffffffffffffffffffffffffffffffffffffffff021916908373ffffffffffffffffffffffffffffffffffffffff1602179055508060016000600354815260200190815260200160002060006101000a81548173ffffffffffffffffffffffffffffffffffffffff021916908373ffffffffffffffffffffffffffffffffffffffff1602179055506003600081548092919060010191905055505050565b6000600354905090565b600460009054906101000a900473ffffffffffffffffffffffffffffffffffffffff1673ffffffffffffffffffffffffffffffffffffffff163373ffffffffffffffffffffffffffffffffffffffff161415156106ad57600080fd5b600460009054906101000a900473ffffffffffffffffffffffffffffffffffffffff1673ffffffffffffffffffffffffffffffffffffffff166108fc3073ffffffffffffffffffffffffffffffffffffffff16319081150290604051600060405180830381858888f19350505050151561072357fe5b565b60006002826040518082805190602001908083835b60208310151561075f578051825260208201915060208101905060208303925061073a565b6001836020036101000a038019825116818451168082178552505050505050905001915050908152602001604051809103902060009054906101000a900473ffffffffffffffffffffffffffffffffffffffff169050919050565b600460009054906101000a900473ffffffffffffffffffffffffffffffffffffffff1673ffffffffffffffffffffffffffffffffffffffff163373ffffffffffffffffffffffffffffffffffffffff1614151561081657600080fd5b600460009054906101000a900473ffffffffffffffffffffffffffffffffffffffff1673ffffffffffffffffffffffffffffffffffffffff16ff5b60606000808373ffffffffffffffffffffffffffffffffffffffff1673ffffffffffffffffffffffffffffffffffffffff1681526020019081526020016000208054600181600116156101000203166002900480601f0160208091040260200160405190810160405280929190818152602001828054600181600116156101000203166002900480156109255780601f106108fa57610100808354040283529160200191610925565b820191906000526020600020905b81548152906001019060200180831161090857829003601f168201915b50505050509050919050565b600060038190555033600460006101000a81548173ffffffffffffffffffffffffffffffffffffffff021916908373ffffffffffffffffffffffffffffffffffffffff160217905550565b60006001600083815260200190815260200160002060009054906101000a900473ffffffffffffffffffffffffffffffffffffffff169050919050565b828054600181600116156101000203166002900490600052602060002090601f016020900481019282601f106109fa57805160ff1916838001178555610a28565b82800160010185558215610a28579182015b82811115610a27578251825591602001919060010190610a0c565b5b509050610a359190610a39565b5090565b610a5b91905b80821115610a57576000816000905550600101610a3f565b5090565b905600a165627a7a7230582021c1008843b6759ace89d5c44cf9b7e29d46458d948218ff3be5e604b7e942110029",
  "source": "pragma solidity ^0.4.17;\n\n              /*微博管理平台*/\ncontract WeiboRegistry {\n\n      //根据账户昵称、ID、地址查找微博账户\n      mapping (address => string) _addressToAccountName;\n      mapping (uint => address) _accountIdToAccountAddress;\n      mapping (string => address) _accountNameToAddress;\n\n      //平台上的注册账户数量\n      uint _numberOfAccounts;\n\n      //微博平台管理员\n      address _registryAdmin;\n\n      //权限控制，被这个修饰符修饰的方法，表示该方法只能被微博平台管理员操作\n      modifier onlyRegistryAdmin() {\n        require(msg.sender == _registryAdmin);\n        _;\n      }\n\n      //微博平台构造函数\n      function WeiboRegistrys() public {\n        _numberOfAccounts = 0;\n        _registryAdmin = msg.sender;\n      }\n\n      //在微博上注册微博：用户名，微博账户\n      function register(string name, address accountAddress) public {\n        //账户之前未注册过\n        require(_accountNameToAddress[name] == address(0));\n\n        //账户昵称之前未注册过\n        require(bytes(_addressToAccountName[accountAddress]).length == 0);\n\n        //昵称不能超过64个字符\n        require(bytes(name).length < 64);\n\n        _addressToAccountName[accountAddress] = name;\n        _accountNameToAddress[name] = accountAddress;\n        _accountIdToAccountAddress[_numberOfAccounts] = accountAddress;\n        _numberOfAccounts++;\n      }\n\n      //返回已注册账户数量\n      function getNumberOfAccounts() constant public returns (uint numberOfAccounts) {\n        numberOfAccounts = _numberOfAccounts;\n      }\n\n      //返回昵称对应的微博账户地址\n      function getAddressOfName(string name) constant public returns (address addr) {\n        addr = _accountNameToAddress[name];\n      }\n\n      //返回与微博账户地址对应的昵称\n      function getNameOfAddress(address addr) constant public returns (string name) {\n        name = _addressToAccountName[addr];\n      }\n\n      //根据ID返回账户\n      function getAddressOfId(uint id) constant public returns (address addr) {\n        addr = _accountIdToAccountAddress[id];\n      }\n\n      //取回打赏\n      function adminRetrieveDonations() onlyRegistryAdmin public {\n        assert(_registryAdmin.send(this.balance));\n      }\n\n      //摧毁合约\n      function adminDeleteRegistry() onlyRegistryAdmin public {\n        selfdestruct(_registryAdmin);\n      }\n\n      //记录每条打赏\n      event LogDonate(address indexed from, uint256 _amount);\n\n      //接受别人打赏\n      function() payable public{\n        emit LogDonate(msg.sender, msg.value);\n      }\n\n}\n",
  "sourcePath": "/home/sxf/UGC/eth-weibo/contracts/WeiboRegistry.sol",
  "compiler": {
    "name": "solc",
    "version": "0.4.24+commit.e67f0147.Emscripten.clang"
  },
  "schemaVersion": "2.0.1",
  "updatedAt": "2018-07-11T05:34:36.385Z"
}